{
  "_format": "hh-sol-artifact-1",
  "contractName": "Wallet",
  "sourceName": "contracts/wallet/Wallet.sol",
  "abi": [
    {
      "inputs": [
        {
          "internalType": "address",
          "name": "entryPoint",
          "type": "address"
        }
      ],
      "stateMutability": "nonpayable",
      "type": "constructor"
    },
    {
      "anonymous": false,
      "inputs": [
        {
          "indexed": false,
          "internalType": "address",
          "name": "previousAdmin",
          "type": "address"
        },
        {
          "indexed": false,
          "internalType": "address",
          "name": "newAdmin",
          "type": "address"
        }
      ],
      "name": "AdminChanged",
      "type": "event"
    },
    {
      "anonymous": false,
      "inputs": [
        {
          "indexed": true,
          "internalType": "address",
          "name": "beacon",
          "type": "address"
        }
      ],
      "name": "BeaconUpgraded",
      "type": "event"
    },
    {
      "anonymous": false,
      "inputs": [
        {
          "indexed": false,
          "internalType": "uint8",
          "name": "version",
          "type": "uint8"
        }
      ],
      "name": "Initialized",
      "type": "event"
    },
    {
      "anonymous": false,
      "inputs": [
        {
          "indexed": true,
          "internalType": "bytes32",
          "name": "role",
          "type": "bytes32"
        },
        {
          "indexed": true,
          "internalType": "bytes32",
          "name": "previousAdminRole",
          "type": "bytes32"
        },
        {
          "indexed": true,
          "internalType": "bytes32",
          "name": "newAdminRole",
          "type": "bytes32"
        }
      ],
      "name": "RoleAdminChanged",
      "type": "event"
    },
    {
      "anonymous": false,
      "inputs": [
        {
          "indexed": true,
          "internalType": "bytes32",
          "name": "role",
          "type": "bytes32"
        },
        {
          "indexed": true,
          "internalType": "address",
          "name": "account",
          "type": "address"
        },
        {
          "indexed": true,
          "internalType": "address",
          "name": "sender",
          "type": "address"
        }
      ],
      "name": "RoleGranted",
      "type": "event"
    },
    {
      "anonymous": false,
      "inputs": [
        {
          "indexed": true,
          "internalType": "bytes32",
          "name": "role",
          "type": "bytes32"
        },
        {
          "indexed": true,
          "internalType": "address",
          "name": "account",
          "type": "address"
        },
        {
          "indexed": true,
          "internalType": "address",
          "name": "sender",
          "type": "address"
        }
      ],
      "name": "RoleRevoked",
      "type": "event"
    },
    {
      "anonymous": false,
      "inputs": [
        {
          "indexed": true,
          "internalType": "address",
          "name": "implementation",
          "type": "address"
        }
      ],
      "name": "Upgraded",
      "type": "event"
    },
    {
      "inputs": [],
      "name": "DEFAULT_ADMIN_ROLE",
      "outputs": [
        {
          "internalType": "bytes32",
          "name": "",
          "type": "bytes32"
        }
      ],
      "stateMutability": "view",
      "type": "function"
    },
    {
      "inputs": [],
      "name": "GUARDIAN_ROLE",
      "outputs": [
        {
          "internalType": "bytes32",
          "name": "",
          "type": "bytes32"
        }
      ],
      "stateMutability": "view",
      "type": "function"
    },
    {
      "inputs": [],
      "name": "OWNER_ROLE",
      "outputs": [
        {
          "internalType": "bytes32",
          "name": "",
          "type": "bytes32"
        }
      ],
      "stateMutability": "view",
      "type": "function"
    },
    {
      "inputs": [],
      "name": "entryPoint",
      "outputs": [
        {
          "internalType": "address",
          "name": "",
          "type": "address"
        }
      ],
      "stateMutability": "view",
      "type": "function"
    },
    {
      "inputs": [
        {
          "internalType": "address",
          "name": "to",
          "type": "address"
        },
        {
          "internalType": "uint256",
          "name": "value",
          "type": "uint256"
        },
        {
          "internalType": "bytes",
          "name": "data",
          "type": "bytes"
        }
      ],
      "name": "executeUserOp",
      "outputs": [],
      "stateMutability": "nonpayable",
      "type": "function"
    },
    {
      "inputs": [],
      "name": "getCurrentImplementation",
      "outputs": [
        {
          "internalType": "address",
          "name": "",
          "type": "address"
        }
      ],
      "stateMutability": "view",
      "type": "function"
    },
    {
      "inputs": [
        {
          "internalType": "uint256",
          "name": "index",
          "type": "uint256"
        }
      ],
      "name": "getGuardian",
      "outputs": [
        {
          "internalType": "address",
          "name": "",
          "type": "address"
        }
      ],
      "stateMutability": "view",
      "type": "function"
    },
    {
      "inputs": [],
      "name": "getGuardiansCount",
      "outputs": [
        {
          "internalType": "uint256",
          "name": "",
          "type": "uint256"
        }
      ],
      "stateMutability": "view",
      "type": "function"
    },
    {
      "inputs": [],
      "name": "getMinGuardiansSignatures",
      "outputs": [
        {
          "internalType": "uint256",
          "name": "",
          "type": "uint256"
        }
      ],
      "stateMutability": "view",
      "type": "function"
    },
    {
      "inputs": [
        {
          "internalType": "uint256",
          "name": "index",
          "type": "uint256"
        }
      ],
      "name": "getOwner",
      "outputs": [
        {
          "internalType": "address",
          "name": "",
          "type": "address"
        }
      ],
      "stateMutability": "view",
      "type": "function"
    },
    {
      "inputs": [],
      "name": "getOwnersCount",
      "outputs": [
        {
          "internalType": "uint256",
          "name": "",
          "type": "uint256"
        }
      ],
      "stateMutability": "view",
      "type": "function"
    },
    {
      "inputs": [
        {
          "internalType": "bytes32",
          "name": "role",
          "type": "bytes32"
        }
      ],
      "name": "getRoleAdmin",
      "outputs": [
        {
          "internalType": "bytes32",
          "name": "",
          "type": "bytes32"
        }
      ],
      "stateMutability": "view",
      "type": "function"
    },
    {
      "inputs": [
        {
          "internalType": "bytes32",
          "name": "role",
          "type": "bytes32"
        },
        {
          "internalType": "uint256",
          "name": "index",
          "type": "uint256"
        }
      ],
      "name": "getRoleMember",
      "outputs": [
        {
          "internalType": "address",
          "name": "",
          "type": "address"
        }
      ],
      "stateMutability": "view",
      "type": "function"
    },
    {
      "inputs": [
        {
          "internalType": "bytes32",
          "name": "role",
          "type": "bytes32"
        }
      ],
      "name": "getRoleMemberCount",
      "outputs": [
        {
          "internalType": "uint256",
          "name": "",
          "type": "uint256"
        }
      ],
      "stateMutability": "view",
      "type": "function"
    },
    {
      "inputs": [
        {
          "internalType": "address",
          "name": "account",
          "type": "address"
        }
      ],
      "name": "grantGuardian",
      "outputs": [],
      "stateMutability": "nonpayable",
      "type": "function"
    },
    {
      "inputs": [
        {
          "internalType": "bytes32",
          "name": "role",
          "type": "bytes32"
        },
        {
          "internalType": "address",
          "name": "account",
          "type": "address"
        }
      ],
      "name": "grantRole",
      "outputs": [],
      "stateMutability": "nonpayable",
      "type": "function"
    },
    {
      "inputs": [
        {
          "internalType": "bytes32",
          "name": "role",
          "type": "bytes32"
        },
        {
          "internalType": "address",
          "name": "account",
          "type": "address"
        }
      ],
      "name": "hasRole",
      "outputs": [
        {
          "internalType": "bool",
          "name": "",
          "type": "bool"
        }
      ],
      "stateMutability": "view",
      "type": "function"
    },
    {
      "inputs": [
        {
          "internalType": "address",
          "name": "_owner",
          "type": "address"
        },
        {
          "internalType": "address[]",
          "name": "_guardians",
          "type": "address[]"
        }
      ],
      "name": "initialize",
      "outputs": [],
      "stateMutability": "nonpayable",
      "type": "function"
    },
    {
      "inputs": [
        {
          "internalType": "address",
          "name": "account",
          "type": "address"
        }
      ],
      "name": "isGuardian",
      "outputs": [
        {
          "internalType": "bool",
          "name": "",
          "type": "bool"
        }
      ],
      "stateMutability": "view",
      "type": "function"
    },
    {
      "inputs": [
        {
          "internalType": "address",
          "name": "account",
          "type": "address"
        }
      ],
      "name": "isOwner",
      "outputs": [
        {
          "internalType": "bool",
          "name": "",
          "type": "bool"
        }
      ],
      "stateMutability": "view",
      "type": "function"
    },
    {
      "inputs": [
        {
          "internalType": "address",
          "name": "account",
          "type": "address"
        }
      ],
      "name": "isSenderAllowed",
      "outputs": [
        {
          "internalType": "bool",
          "name": "",
          "type": "bool"
        }
      ],
      "stateMutability": "view",
      "type": "function"
    },
    {
      "inputs": [
        {
          "internalType": "bytes32",
          "name": "hash",
          "type": "bytes32"
        },
        {
          "internalType": "bytes",
          "name": "signature",
          "type": "bytes"
        }
      ],
      "name": "isValidSignature",
      "outputs": [
        {
          "internalType": "bytes4",
          "name": "",
          "type": "bytes4"
        }
      ],
      "stateMutability": "view",
      "type": "function"
    },
    {
      "inputs": [],
      "name": "nonce",
      "outputs": [
        {
          "internalType": "uint256",
          "name": "",
          "type": "uint256"
        }
      ],
      "stateMutability": "view",
      "type": "function"
    },
    {
      "inputs": [
        {
          "internalType": "enum PostOpMode",
          "name": "mode",
          "type": "uint8"
        },
        {
          "internalType": "bytes",
          "name": "context",
          "type": "bytes"
        },
        {
          "internalType": "uint256",
          "name": "cost",
          "type": "uint256"
        }
      ],
      "name": "postOp",
      "outputs": [],
      "stateMutability": "nonpayable",
      "type": "function"
    },
    {
      "inputs": [],
      "name": "proxiableUUID",
      "outputs": [
        {
          "internalType": "bytes32",
          "name": "",
          "type": "bytes32"
        }
      ],
      "stateMutability": "view",
      "type": "function"
    },
    {
      "inputs": [
        {
          "internalType": "bytes32",
          "name": "role",
          "type": "bytes32"
        },
        {
          "internalType": "address",
          "name": "account",
          "type": "address"
        }
      ],
      "name": "renounceRole",
      "outputs": [],
      "stateMutability": "nonpayable",
      "type": "function"
    },
    {
      "inputs": [
        {
          "internalType": "address",
          "name": "account",
          "type": "address"
        }
      ],
      "name": "revokeGuardian",
      "outputs": [],
      "stateMutability": "nonpayable",
      "type": "function"
    },
    {
      "inputs": [
        {
          "internalType": "bytes32",
          "name": "role",
          "type": "bytes32"
        },
        {
          "internalType": "address",
          "name": "account",
          "type": "address"
        }
      ],
      "name": "revokeRole",
      "outputs": [],
      "stateMutability": "nonpayable",
      "type": "function"
    },
    {
      "inputs": [
        {
          "internalType": "bytes4",
          "name": "interfaceId",
          "type": "bytes4"
        }
      ],
      "name": "supportsInterface",
      "outputs": [
        {
          "internalType": "bool",
          "name": "",
          "type": "bool"
        }
      ],
      "stateMutability": "view",
      "type": "function"
    },
    {
      "inputs": [
        {
          "internalType": "address",
          "name": "account",
          "type": "address"
        }
      ],
      "name": "transferOwner",
      "outputs": [],
      "stateMutability": "nonpayable",
      "type": "function"
    },
    {
      "inputs": [
        {
          "internalType": "address",
          "name": "newImplementation",
          "type": "address"
        }
      ],
      "name": "upgradeTo",
      "outputs": [],
      "stateMutability": "nonpayable",
      "type": "function"
    },
    {
      "inputs": [
        {
          "internalType": "address",
          "name": "newImplementation",
          "type": "address"
        },
        {
          "internalType": "bytes",
          "name": "data",
          "type": "bytes"
        }
      ],
      "name": "upgradeToAndCall",
      "outputs": [],
      "stateMutability": "payable",
      "type": "function"
    },
    {
      "inputs": [
        {
          "components": [
            {
              "internalType": "address",
              "name": "sender",
              "type": "address"
            },
            {
              "internalType": "uint256",
              "name": "nonce",
              "type": "uint256"
            },
            {
              "internalType": "bytes",
              "name": "initCode",
              "type": "bytes"
            },
            {
              "internalType": "bytes",
              "name": "callData",
              "type": "bytes"
            },
            {
              "internalType": "uint256",
              "name": "callGas",
              "type": "uint256"
            },
            {
              "internalType": "uint256",
              "name": "verificationGas",
              "type": "uint256"
            },
            {
              "internalType": "uint256",
              "name": "preVerificationGas",
              "type": "uint256"
            },
            {
              "internalType": "uint256",
              "name": "maxFeePerGas",
              "type": "uint256"
            },
            {
              "internalType": "uint256",
              "name": "maxPriorityFeePerGas",
              "type": "uint256"
            },
            {
              "internalType": "address",
              "name": "paymaster",
              "type": "address"
            },
            {
              "internalType": "bytes",
              "name": "paymasterData",
              "type": "bytes"
            },
            {
              "internalType": "bytes",
              "name": "signature",
              "type": "bytes"
            }
          ],
          "internalType": "struct UserOperation",
          "name": "op",
          "type": "tuple"
        },
        {
          "internalType": "bytes32",
          "name": "",
          "type": "bytes32"
        },
        {
          "internalType": "uint256",
          "name": "cost",
          "type": "uint256"
        }
      ],
      "name": "validatePaymasterUserOp",
      "outputs": [
        {
          "internalType": "bytes",
          "name": "context",
          "type": "bytes"
        }
      ],
      "stateMutability": "view",
      "type": "function"
    },
    {
      "inputs": [
        {
          "components": [
            {
              "internalType": "address",
              "name": "sender",
              "type": "address"
            },
            {
              "internalType": "uint256",
              "name": "nonce",
              "type": "uint256"
            },
            {
              "internalType": "bytes",
              "name": "initCode",
              "type": "bytes"
            },
            {
              "internalType": "bytes",
              "name": "callData",
              "type": "bytes"
            },
            {
              "internalType": "uint256",
              "name": "callGas",
              "type": "uint256"
            },
            {
              "internalType": "uint256",
              "name": "verificationGas",
              "type": "uint256"
            },
            {
              "internalType": "uint256",
              "name": "preVerificationGas",
              "type": "uint256"
            },
            {
              "internalType": "uint256",
              "name": "maxFeePerGas",
              "type": "uint256"
            },
            {
              "internalType": "uint256",
              "name": "maxPriorityFeePerGas",
              "type": "uint256"
            },
            {
              "internalType": "address",
              "name": "paymaster",
              "type": "address"
            },
            {
              "internalType": "bytes",
              "name": "paymasterData",
              "type": "bytes"
            },
            {
              "internalType": "bytes",
              "name": "signature",
              "type": "bytes"
            }
          ],
          "internalType": "struct UserOperation",
          "name": "op",
          "type": "tuple"
        },
        {
          "internalType": "bytes32",
          "name": "requestId",
          "type": "bytes32"
        },
        {
          "internalType": "uint256",
          "name": "requiredPrefund",
          "type": "uint256"
        }
      ],
      "name": "validateUserOp",
      "outputs": [],
      "stateMutability": "nonpayable",
      "type": "function"
    },
    {
      "stateMutability": "payable",
      "type": "receive"
    }
  ],
  "bytecode": "0x60c0604052306080523480156200001557600080fd5b5060405162005b5e38038062005b5e8339810160408190526200003891620001dc565b806000620000476001620000bb565b9050801562000060576000805461ff0019166101001790555b8015620000a7576000805461ff0019169055604051600181527f7f26b83ff96e1f2b6a682f133852f6798a09c465da95921460cefb38474024989060200160405180910390a15b506001600160a01b031660a052506200020e565b60008054610100900460ff161562000154578160ff166001148015620000f45750620000f230620001cd60201b62001b711760201c565b155b6200014c5760405162461bcd60e51b815260206004820152602e602482015260008051602062005b3e83398151915260448201526d191e481a5b9a5d1a585b1a5e995960921b60648201526084015b60405180910390fd5b506000919050565b60005460ff808416911610620001b35760405162461bcd60e51b815260206004820152602e602482015260008051602062005b3e83398151915260448201526d191e481a5b9a5d1a585b1a5e995960921b606482015260840162000143565b506000805460ff191660ff92909216919091179055600190565b6001600160a01b03163b151590565b600060208284031215620001ef57600080fd5b81516001600160a01b03811681146200020757600080fd5b9392505050565b60805160a0516158af6200028f6000396000818161060d015281816106f501528181610e5e015281816110e4015281816115e001528181611719015281816118500152818161199501528181611b490152611c98015260008181610a2401528181610ad401528181610c8101528181610d31015261101001526158af6000f3fe60806040526004361061021d5760003560e01c80637bfd08451161011d578063affed0e0116100b0578063ca15c8731161007f578063e58378bb11610064578063e58378bb146106a4578063efc78401146106d8578063fcbac1f41461073257600080fd5b8063ca15c87314610664578063d547741f1461068457600080fd5b8063affed0e0146105e4578063b0d691fe146105fb578063b18c24201461062f578063c41a360a1461064457600080fd5b806394b1d2c0116100ec57806394b1d2c01461056f578063a217fddf1461058f578063a9a23409146105a4578063af648c3d146105c457600080fd5b80637bfd0845146104af5780639010d07c146104dc57806391d14854146104fc578063946d92041461054f57600080fd5b806336568abe116101b05780634f1ef2861161017f57806352d1902d1161016457806352d1902d1461046557806367674a6f1461047a57806373ff81cc1461049a57600080fd5b80634f1ef286146104325780634fb2e45d1461044557600080fd5b806336568abe146103bd5780633659cfe6146103dd578063370c3089146103fd5780634cc499d71461041257600080fd5b806324ea54f4116101ec57806324ea54f41461030d57806329cca569146103415780632f2ff15d1461037b5780632f54bf6e1461039d57600080fd5b806301ffc9a7146102295780630c68ba211461025e5780631626ba7e1461027e578063248a9ca3146102cf57600080fd5b3661022457005b600080fd5b34801561023557600080fd5b506102496102443660046149a4565b610752565b60405190151581526020015b60405180910390f35b34801561026a57600080fd5b506102496102793660046149e3565b6107ae565b34801561028a57600080fd5b5061029e610299366004614b43565b6107fb565b6040517fffffffff000000000000000000000000000000000000000000000000000000009091168152602001610255565b3480156102db57600080fd5b506102ff6102ea366004614b8a565b600090815260c9602052604090206001015490565b604051908152602001610255565b34801561031957600080fd5b506102ff7f55435dd261a4b9b3364963f7738a7a662ad9c84396d64be3365284bb7f0a504181565b34801561034d57600080fd5b5061035661089d565b60405173ffffffffffffffffffffffffffffffffffffffff9091168152602001610255565b34801561038757600080fd5b5061039b610396366004614ba3565b6108e2565b005b3480156103a957600080fd5b506102496103b83660046149e3565b61090c565b3480156103c957600080fd5b5061039b6103d8366004614ba3565b610959565b3480156103e957600080fd5b5061039b6103f83660046149e3565b610a0c565b34801561040957600080fd5b506102ff610c12565b34801561041e57600080fd5b5061035661042d366004614b8a565b610c3d565b61039b610440366004614bd3565b610c69565b34801561045157600080fd5b5061039b6104603660046149e3565b610e5c565b34801561047157600080fd5b506102ff610ff6565b34801561048657600080fd5b5061039b610495366004614c4f565b6110e2565b3480156104a657600080fd5b506102ff611214565b3480156104bb57600080fd5b506104cf6104ca366004614cab565b61123f565b6040516102559190614d75565b3480156104e857600080fd5b506103566104f7366004614d88565b611514565b34801561050857600080fd5b50610249610517366004614ba3565b600091825260c96020908152604080842073ffffffffffffffffffffffffffffffffffffffff93909316845291905290205460ff1690565b34801561055b57600080fd5b5061039b61056a366004614dce565b61152c565b34801561057b57600080fd5b5061039b61058a3660046149e3565b6115de565b34801561059b57600080fd5b506102ff600081565b3480156105b057600080fd5b5061039b6105bf366004614e7d565b611717565b3480156105d057600080fd5b5061039b6105df3660046149e3565b61184e565b3480156105f057600080fd5b506102ff6101915481565b34801561060757600080fd5b506103567f000000000000000000000000000000000000000000000000000000000000000081565b34801561063b57600080fd5b506102ff611917565b34801561065057600080fd5b5061035661065f366004614b8a565b61192b565b34801561067057600080fd5b506102ff61067f366004614b8a565b611957565b34801561069057600080fd5b5061039b61069f366004614ba3565b61196e565b3480156106b057600080fd5b506102ff7fb19546dff01e856fb3f010c267a7b1c60363cf8a4664e21cc89c26224620214e81565b3480156106e457600080fd5b506102496106f33660046149e3565b7f000000000000000000000000000000000000000000000000000000000000000073ffffffffffffffffffffffffffffffffffffffff90811691161490565b34801561073e57600080fd5b5061039b61074d366004614cab565b611993565b60007fffffffff0000000000000000000000000000000000000000000000000000000082167f5a05180f0000000000000000000000000000000000000000000000000000000014806107a857506107a882611b8d565b92915050565b73ffffffffffffffffffffffffffffffffffffffff811660009081527f42433f30842f027234f95eef6ba52ea4eb9f1310dcea3f4c81958054d311825b602052604081205460ff166107a8565b600061080a6103b88484611c24565b610875576040517f08c379a000000000000000000000000000000000000000000000000000000000815260206004820152601660248201527f41434c3a20496e76616c6964207369676e61747572650000000000000000000060448201526064015b60405180910390fd5b507f1626ba7e0000000000000000000000000000000000000000000000000000000092915050565b60006108dd7f360894a13ba1a3210667c828492db98dca3e2076cc3735a920a3ca505d382bbc5473ffffffffffffffffffffffffffffffffffffffff1690565b905090565b600082815260c960205260409020600101546108fd81611c48565b6109078383611c52565b505050565b73ffffffffffffffffffffffffffffffffffffffff811660009081527f8b9c60e99117f5032802dca1150f0b5e8c20c85aaaf9b6948c204e6687095705602052604081205460ff166107a8565b73ffffffffffffffffffffffffffffffffffffffff811633146109fe576040517f08c379a000000000000000000000000000000000000000000000000000000000815260206004820152602f60248201527f416363657373436f6e74726f6c3a2063616e206f6e6c792072656e6f756e636560448201527f20726f6c657320666f722073656c660000000000000000000000000000000000606482015260840161086c565b610a088282611c74565b5050565b3073ffffffffffffffffffffffffffffffffffffffff7f0000000000000000000000000000000000000000000000000000000000000000161415610ad2576040517f08c379a000000000000000000000000000000000000000000000000000000000815260206004820152602c60248201527f46756e6374696f6e206d7573742062652063616c6c6564207468726f7567682060448201527f64656c656761746563616c6c0000000000000000000000000000000000000000606482015260840161086c565b7f000000000000000000000000000000000000000000000000000000000000000073ffffffffffffffffffffffffffffffffffffffff16610b477f360894a13ba1a3210667c828492db98dca3e2076cc3735a920a3ca505d382bbc5473ffffffffffffffffffffffffffffffffffffffff1690565b73ffffffffffffffffffffffffffffffffffffffff1614610bea576040517f08c379a000000000000000000000000000000000000000000000000000000000815260206004820152602c60248201527f46756e6374696f6e206d7573742062652063616c6c6564207468726f7567682060448201527f6163746976652070726f78790000000000000000000000000000000000000000606482015260840161086c565b610bf381611c96565b60408051600080825260208201909252610c0f91839190611d35565b50565b60006108dd7f55435dd261a4b9b3364963f7738a7a662ad9c84396d64be3365284bb7f0a5041611957565b60006107a87f55435dd261a4b9b3364963f7738a7a662ad9c84396d64be3365284bb7f0a504183611514565b3073ffffffffffffffffffffffffffffffffffffffff7f0000000000000000000000000000000000000000000000000000000000000000161415610d2f576040517f08c379a000000000000000000000000000000000000000000000000000000000815260206004820152602c60248201527f46756e6374696f6e206d7573742062652063616c6c6564207468726f7567682060448201527f64656c656761746563616c6c0000000000000000000000000000000000000000606482015260840161086c565b7f000000000000000000000000000000000000000000000000000000000000000073ffffffffffffffffffffffffffffffffffffffff16610da47f360894a13ba1a3210667c828492db98dca3e2076cc3735a920a3ca505d382bbc5473ffffffffffffffffffffffffffffffffffffffff1690565b73ffffffffffffffffffffffffffffffffffffffff1614610e47576040517f08c379a000000000000000000000000000000000000000000000000000000000815260206004820152602c60248201527f46756e6374696f6e206d7573742062652063616c6c6564207468726f7567682060448201527f6163746976652070726f78790000000000000000000000000000000000000000606482015260840161086c565b610e5082611c96565b610a0882826001611d35565b7f000000000000000000000000000000000000000000000000000000000000000073ffffffffffffffffffffffffffffffffffffffff163314610efb576040517f08c379a000000000000000000000000000000000000000000000000000000000815260206004820152601760248201527f41434c3a2073656e646572206e6f7420616c6c6f776564000000000000000000604482015260640161086c565b73ffffffffffffffffffffffffffffffffffffffff8116610f78576040517f08c379a000000000000000000000000000000000000000000000000000000000815260206004820152601960248201527f41434c3a204f776e65722063616e6e6f74206265207a65726f00000000000000604482015260640161086c565b610fcc7fb19546dff01e856fb3f010c267a7b1c60363cf8a4664e21cc89c26224620214e610fc77fb19546dff01e856fb3f010c267a7b1c60363cf8a4664e21cc89c26224620214e6000611514565b611c74565b610c0f7fb19546dff01e856fb3f010c267a7b1c60363cf8a4664e21cc89c26224620214e82611c52565b60003073ffffffffffffffffffffffffffffffffffffffff7f000000000000000000000000000000000000000000000000000000000000000016146110bd576040517f08c379a000000000000000000000000000000000000000000000000000000000815260206004820152603860248201527f555550535570677261646561626c653a206d757374206e6f742062652063616c60448201527f6c6564207468726f7567682064656c656761746563616c6c0000000000000000606482015260840161086c565b507f360894a13ba1a3210667c828492db98dca3e2076cc3735a920a3ca505d382bbc90565b7f000000000000000000000000000000000000000000000000000000000000000073ffffffffffffffffffffffffffffffffffffffff163314611181576040517f08c379a000000000000000000000000000000000000000000000000000000000815260206004820152601760248201527f41434c3a2073656e646572206e6f7420616c6c6f776564000000000000000000604482015260640161086c565b61120e82828080601f0160208091040260200160405190810160405280939291908181526020018383808284376000920191909152505060408051808201909152601881527f57616c6c65743a20457865637574696f6e206661696c65640000000000000000602082015273ffffffffffffffffffffffffffffffffffffffff8916939250879150611f43565b50505050565b60006108dd7fb19546dff01e856fb3f010c267a7b1c60363cf8a4664e21cc89c26224620214e611957565b6060600061124c85611f6c565b905060008151600181111561126357611263614edd565b146112ca576040517f08c379a000000000000000000000000000000000000000000000000000000000815260206004820152601f60248201527f5061796d61737465723a2043616e6e6f74207369676e20677561726469616e00604482015260640161086c565b600081602001516000815181106112e3576112e3614f0c565b6020026020010151905061130881600001516112fe88611f9b565b8360200151612177565b600061131387612257565b90506000816040015173ffffffffffffffffffffffffffffffffffffffff1663313ce5676040518163ffffffff1660e01b815260040160206040518083038186803b15801561136157600080fd5b505afa158015611375573d6000803e3d6000fd5b505050506040513d601f19601f820116820180604052508101906113999190614f3b565b905060006113ab83606001518361230c565b905060006113c38460200151838a876000015161247d565b6040850151909150819073ffffffffffffffffffffffffffffffffffffffff166370a082316113f560208e018e6149e3565b6040517fffffffff0000000000000000000000000000000000000000000000000000000060e084901b16815273ffffffffffffffffffffffffffffffffffffffff909116600482015260240160206040518083038186803b15801561145957600080fd5b505afa15801561146d573d6000803e3d6000fd5b505050506040513d601f19601f820116820180604052508101906114919190614f5e565b10156114f9576040517f08c379a000000000000000000000000000000000000000000000000000000000815260206004820152601d60248201527f5061796d61737465723a204e6f7420656e6f7567682062616c616e6365000000604482015260640161086c565b6115048a8584612533565b96505050505050505b9392505050565b600082815260fb6020526040812061150d908361257e565b6000611538600161258a565b9050801561156d57600080547fffffffffffffffffffffffffffffffffffffffffffffffffffffffffffff00ff166101001790555b6115778383612715565b801561090757600080547fffffffffffffffffffffffffffffffffffffffffffffffffffffffffffff00ff169055604051600181527f7f26b83ff96e1f2b6a682f133852f6798a09c465da95921460cefb38474024989060200160405180910390a1505050565b7f000000000000000000000000000000000000000000000000000000000000000073ffffffffffffffffffffffffffffffffffffffff16331461167d576040517f08c379a000000000000000000000000000000000000000000000000000000000815260206004820152601760248201527f41434c3a2073656e646572206e6f7420616c6c6f776564000000000000000000604482015260640161086c565b6116868161090c565b156116ed576040517f08c379a000000000000000000000000000000000000000000000000000000000815260206004820152601d60248201527f41434c3a204f776e65722063616e6e6f7420626520677561726469616e000000604482015260640161086c565b610c0f7f55435dd261a4b9b3364963f7738a7a662ad9c84396d64be3365284bb7f0a504182611c52565b7f000000000000000000000000000000000000000000000000000000000000000073ffffffffffffffffffffffffffffffffffffffff1633146117b6576040517f08c379a000000000000000000000000000000000000000000000000000000000815260206004820152601760248201527f41434c3a2073656e646572206e6f7420616c6c6f776564000000000000000000604482015260640161086c565b60006117f784848080601f0160208091040260200160405190810160405280939291908181526020018383808284376000920191909152506129e792505050565b905060006118138260200151836060015185856080015161247d565b9050801561184657815160408301516118469173ffffffffffffffffffffffffffffffffffffffff909116903084612aa8565b505050505050565b7f000000000000000000000000000000000000000000000000000000000000000073ffffffffffffffffffffffffffffffffffffffff1633146118ed576040517f08c379a000000000000000000000000000000000000000000000000000000000815260206004820152601760248201527f41434c3a2073656e646572206e6f7420616c6c6f776564000000000000000000604482015260640161086c565b610c0f7f55435dd261a4b9b3364963f7738a7a662ad9c84396d64be3365284bb7f0a504182611c74565b60006108dd611924610c12565b6002612b3d565b60006107a87fb19546dff01e856fb3f010c267a7b1c60363cf8a4664e21cc89c26224620214e83611514565b600081815260fb602052604081206107a890612b6f565b600082815260c9602052604090206001015461198981611c48565b6109078383611c74565b7f000000000000000000000000000000000000000000000000000000000000000073ffffffffffffffffffffffffffffffffffffffff163314611a32576040517f08c379a000000000000000000000000000000000000000000000000000000000815260206004820152601760248201527f41434c3a2073656e646572206e6f7420616c6c6f776564000000000000000000604482015260640161086c565b61019180546020850135916000611a4883614fa6565b9190505514611ab3576040517f08c379a000000000000000000000000000000000000000000000000000000000815260206004820152601560248201527f57616c6c65743a20496e76616c6964206e6f6e63650000000000000000000000604482015260640161086c565b6000611abe84612b79565b9050600081516001811115611ad557611ad5614edd565b14611aea57611ae5818585612bd9565b611af4565b611af48184612ddd565b811561120e5760408051808201909152601981527f57616c6c65743a204661696c656420746f2070726566756e6400000000000000602082015261120e9073ffffffffffffffffffffffffffffffffffffffff7f000000000000000000000000000000000000000000000000000000000000000016908490612e5f565b73ffffffffffffffffffffffffffffffffffffffff163b151590565b60007fffffffff0000000000000000000000000000000000000000000000000000000082167f7965db0b0000000000000000000000000000000000000000000000000000000014806107a857507f01ffc9a7000000000000000000000000000000000000000000000000000000007fffffffff000000000000000000000000000000000000000000000000000000008316146107a8565b6000806000611c338585612f39565b91509150611c4081612fa9565b509392505050565b610c0f8133613202565b611c5c82826132d4565b600082815260fb6020526040902061090790826133c8565b611c7e82826133ea565b600082815260fb6020526040902061090790826134a5565b7f000000000000000000000000000000000000000000000000000000000000000073ffffffffffffffffffffffffffffffffffffffff163314610c0f576040517f08c379a000000000000000000000000000000000000000000000000000000000815260206004820152601760248201527f41434c3a2073656e646572206e6f7420616c6c6f776564000000000000000000604482015260640161086c565b7f4910fdfa16fed3260ed0e7147f7cc6da11a60208b5b9406d12a635614ffd91435460ff1615611d6857610907836134c7565b8273ffffffffffffffffffffffffffffffffffffffff166352d1902d6040518163ffffffff1660e01b815260040160206040518083038186803b158015611dae57600080fd5b505afa925050508015611dfc575060408051601f3d9081017fffffffffffffffffffffffffffffffffffffffffffffffffffffffffffffffe0168201909252611df991810190614f5e565b60015b611e88576040517f08c379a000000000000000000000000000000000000000000000000000000000815260206004820152602e60248201527f45524331393637557067726164653a206e657720696d706c656d656e7461746960448201527f6f6e206973206e6f742055555053000000000000000000000000000000000000606482015260840161086c565b7f360894a13ba1a3210667c828492db98dca3e2076cc3735a920a3ca505d382bbc8114611f37576040517f08c379a000000000000000000000000000000000000000000000000000000000815260206004820152602960248201527f45524331393637557067726164653a20756e737570706f727465642070726f7860448201527f6961626c65555549440000000000000000000000000000000000000000000000606482015260840161086c565b506109078383836135d1565b8251611f5957611f54848383612e5f565b61120e565b611f65848484846135f6565b5050505050565b6040805180820190915260008152606060208201526000611f8c83612257565b905061150d816080015161378c565b600080611fa783612257565b905061150d611fb960208501856149e3565b6020850135611fcb6040870187614fdf565b604051611fd9929190615044565b604051908190039020611fef6060880188614fdf565b604051611ffd929190615044565b604051908190039020608088013560a089013560c08a013560e08b01356101008c01356120326101408e016101208f016149e3565b8b600001518c602001518d604001518e606001516040516020016120599493929190615054565b604080517fffffffffffffffffffffffffffffffffffffffffffffffffffffffffffffffe08184030181529082905280516020918201207fffffffffffffffffffffffffffffffffffffffff00000000000000000000000060609d8e1b811692840192909252603483019b909b5260548201999099526074810197909752609487019590955260b486019390935260d485019190915260f484015261011483015290931b1661013483015261014882015261016801604051602081830303815290604052805190602001206040517f19457468657265756d205369676e6564204d6573736167653a0a3332000000006020820152603c8101829052600090605c01604051602081830303815290604052805190602001209050919050565b6121828383836137e9565b6121e8576040517f08c379a000000000000000000000000000000000000000000000000000000000815260206004820152601660248201527f41434c3a20496e76616c6964206f776e65722073696700000000000000000000604482015260640161086c565b6121f18361090c565b610907576040517f08c379a000000000000000000000000000000000000000000000000000000000815260206004820152601860248201527f41434c3a205369676e6572206e6f7420616e206f776e65720000000000000000604482015260640161086c565b6122886040805160a08101909152600080825260208201908152600060208201819052604082015260609081015290565b60008080808061229c610140880188614fdf565b8101906122a991906150e6565b945094509450945094506040518060a001604052808681526020018560038111156122d6576122d6614edd565b815273ffffffffffffffffffffffffffffffffffffffff9485166020820152929093166040830152606090910152949350505050565b6000808373ffffffffffffffffffffffffffffffffffffffff1663feaf968c6040518163ffffffff1660e01b815260040160a06040518083038186803b15801561235557600080fd5b505afa158015612369573d6000803e3d6000fd5b505050506040513d601f19601f8201168201806040525081019061238d919061517f565b505050915050600061239e826139d8565b905060008573ffffffffffffffffffffffffffffffffffffffff1663313ce5676040518163ffffffff1660e01b815260040160206040518083038186803b1580156123e857600080fd5b505afa1580156123fc573d6000803e3d6000fd5b505050506040513d601f19601f820116820180604052508101906124209190614f3b565b90508060ff168560ff1610156124545761243a85826151cf565b61244590600a615312565b61244f9083615350565b612473565b61245e81866151cf565b61246990600a615312565b6124739083615364565b9695505050505050565b6000600385600381111561249357612493614edd565b14156124a15750600061252b565b60018560038111156124b5576124b5614edd565b14156124c257508061252b565b60028560038111156124d6576124d6614edd565b141561250057670de0b6b3a76400006124ef8585615364565b6124f99190615350565b905061252b565b81670de0b6b3a76400006125148686615364565b61251e9190615350565b61252891906153a1565b90505b949350505050565b606061254260208501856149e3565b836020015184604001518486600001516040516020016125669594939291906153b9565b60405160208183030381529060405290509392505050565b600061150d8383613a48565b60008054610100900460ff1615612641578160ff1660011480156125ad5750303b155b612639576040517f08c379a000000000000000000000000000000000000000000000000000000000815260206004820152602e60248201527f496e697469616c697a61626c653a20636f6e747261637420697320616c72656160448201527f647920696e697469616c697a6564000000000000000000000000000000000000606482015260840161086c565b506000919050565b60005460ff8084169116106126d8576040517f08c379a000000000000000000000000000000000000000000000000000000000815260206004820152602e60248201527f496e697469616c697a61626c653a20636f6e747261637420697320616c72656160448201527f647920696e697469616c697a6564000000000000000000000000000000000000606482015260840161086c565b50600080547fffffffffffffffffffffffffffffffffffffffffffffffffffffffffffffff001660ff92909216919091179055600190565b919050565b600054610100900460ff166127ac576040517f08c379a000000000000000000000000000000000000000000000000000000000815260206004820152602b60248201527f496e697469616c697a61626c653a20636f6e7472616374206973206e6f74206960448201527f6e697469616c697a696e67000000000000000000000000000000000000000000606482015260840161086c565b6127b4613a72565b6127bc613a72565b73ffffffffffffffffffffffffffffffffffffffff8216612839576040517f08c379a000000000000000000000000000000000000000000000000000000000815260206004820152601960248201527f41434c3a204f776e65722063616e6e6f74206265207a65726f00000000000000604482015260640161086c565b6128637fb19546dff01e856fb3f010c267a7b1c60363cf8a4664e21cc89c26224620214e80613b0b565b61288d7fb19546dff01e856fb3f010c267a7b1c60363cf8a4664e21cc89c26224620214e83611c52565b6128d77f55435dd261a4b9b3364963f7738a7a662ad9c84396d64be3365284bb7f0a50417fb19546dff01e856fb3f010c267a7b1c60363cf8a4664e21cc89c26224620214e613b0b565b60005b8151811015610907578181815181106128f5576128f5614f0c565b602002602001015173ffffffffffffffffffffffffffffffffffffffff168373ffffffffffffffffffffffffffffffffffffffff161415612992576040517f08c379a000000000000000000000000000000000000000000000000000000000815260206004820152601d60248201527f41434c3a204f776e65722063616e6e6f7420626520677561726469616e000000604482015260640161086c565b6129d57f55435dd261a4b9b3364963f7738a7a662ad9c84396d64be3365284bb7f0a50418383815181106129c8576129c8614f0c565b6020026020010151611c52565b806129df81614fa6565b9150506128da565b6040805160a081018252600080825260208201819052918101829052606081018290526080810191909152600080600080600086806020019051810190612a2e9190615434565b945094509450945094506040518060a001604052808673ffffffffffffffffffffffffffffffffffffffff168152602001856003811115612a7157612a71614edd565b81526020018473ffffffffffffffffffffffffffffffffffffffff1681526020018381526020018281525095505050505050919050565b6040805173ffffffffffffffffffffffffffffffffffffffff85811660248301528416604482015260648082018490528251808303909101815260849091019091526020810180517bffffffffffffffffffffffffffffffffffffffffffffffffffffffff167f23b872dd0000000000000000000000000000000000000000000000000000000017905261120e908590613b56565b6000612b498284615492565b15612b55576001612b58565b60005b60ff16612b658385615350565b61150d91906153a1565b60006107a8825490565b6040805180820190915260008152606060208201526107a8612b9f610160840184614fdf565b8080601f01602080910402602001604051908101604052809392919081815260200183838082843760009201919091525061378c92505050565b6000612be3610c12565b11612c4a576040517f08c379a000000000000000000000000000000000000000000000000000000000815260206004820152601c60248201527f57616c6c65743a204e6f20677561726469616e7320616c6c6f77656400000000604482015260640161086c565b612c5382613c62565b612cb9576040517f08c379a000000000000000000000000000000000000000000000000000000000815260206004820152601f60248201527f57616c6c65743a20496e76616c696420677561726469616e20616374696f6e00604482015260640161086c565b612cc1611917565b8360200151511015612d2f576040517f08c379a000000000000000000000000000000000000000000000000000000000815260206004820152601e60248201527f57616c6c65743a20496e73756666696369656e7420677561726469616e730000604482015260640161086c565b60005b83602001515181101561120e57600084602001518281518110612d5757612d57614f0c565b60200260200101519050612dca8160000151612dc0856040517f19457468657265756d205369676e6564204d6573736167653a0a3332000000006020820152603c8101829052600090605c01604051602081830303815290604052805190602001209050919050565b8360200151613cda565b5080612dd581614fa6565b915050612d32565b60008260200151600081518110612df657612df6614f0c565b6020026020010151905061090781600001516112fe846040517f19457468657265756d205369676e6564204d6573736167653a0a3332000000006020820152603c8101829052600090605c01604051602081830303815290604052805190602001209050919050565b81471015612ec9576040517f08c379a000000000000000000000000000000000000000000000000000000000815260206004820152601d60248201527f416464726573733a20696e73756666696369656e742062616c616e6365000000604482015260640161086c565b6000808473ffffffffffffffffffffffffffffffffffffffff168460405160006040518083038185875af1925050503d8060008114612f24576040519150601f19603f3d011682016040523d82523d6000602084013e612f29565b606091505b5091509150611846828285613dba565b600080825160411415612f705760208301516040840151606085015160001a612f6487828585613e0d565b94509450505050612fa2565b825160401415612f9a5760208301516040840151612f8f868383613f25565b935093505050612fa2565b506000905060025b9250929050565b6000816004811115612fbd57612fbd614edd565b1415612fc65750565b6001816004811115612fda57612fda614edd565b1415613042576040517f08c379a000000000000000000000000000000000000000000000000000000000815260206004820152601860248201527f45434453413a20696e76616c6964207369676e61747572650000000000000000604482015260640161086c565b600281600481111561305657613056614edd565b14156130be576040517f08c379a000000000000000000000000000000000000000000000000000000000815260206004820152601f60248201527f45434453413a20696e76616c6964207369676e6174757265206c656e67746800604482015260640161086c565b60038160048111156130d2576130d2614edd565b1415613160576040517f08c379a000000000000000000000000000000000000000000000000000000000815260206004820152602260248201527f45434453413a20696e76616c6964207369676e6174757265202773272076616c60448201527f7565000000000000000000000000000000000000000000000000000000000000606482015260840161086c565b600481600481111561317457613174614edd565b1415610c0f576040517f08c379a000000000000000000000000000000000000000000000000000000000815260206004820152602260248201527f45434453413a20696e76616c6964207369676e6174757265202776272076616c60448201527f7565000000000000000000000000000000000000000000000000000000000000606482015260840161086c565b600082815260c96020908152604080832073ffffffffffffffffffffffffffffffffffffffff8516845290915290205460ff16610a085761325a8173ffffffffffffffffffffffffffffffffffffffff166014613f77565b613265836020613f77565b6040516020016132769291906154a6565b604080517fffffffffffffffffffffffffffffffffffffffffffffffffffffffffffffffe0818403018152908290527f08c379a000000000000000000000000000000000000000000000000000000000825261086c91600401614d75565b600082815260c96020908152604080832073ffffffffffffffffffffffffffffffffffffffff8516845290915290205460ff16610a0857600082815260c96020908152604080832073ffffffffffffffffffffffffffffffffffffffff85168452909152902080547fffffffffffffffffffffffffffffffffffffffffffffffffffffffffffffff0016600117905561336a3390565b73ffffffffffffffffffffffffffffffffffffffff168173ffffffffffffffffffffffffffffffffffffffff16837f2f8788117e7eff1d82e926ec794901d17c78024a50270940304540a733656f0d60405160405180910390a45050565b600061150d8373ffffffffffffffffffffffffffffffffffffffff84166141ba565b600082815260c96020908152604080832073ffffffffffffffffffffffffffffffffffffffff8516845290915290205460ff1615610a0857600082815260c96020908152604080832073ffffffffffffffffffffffffffffffffffffffff8516808552925280832080547fffffffffffffffffffffffffffffffffffffffffffffffffffffffffffffff0016905551339285917ff6391f5c32d9c69d2a47ea670b442974b53935d1edc7fd64eb21e047a839171b9190a45050565b600061150d8373ffffffffffffffffffffffffffffffffffffffff8416614209565b73ffffffffffffffffffffffffffffffffffffffff81163b61356b576040517f08c379a000000000000000000000000000000000000000000000000000000000815260206004820152602d60248201527f455243313936373a206e657720696d706c656d656e746174696f6e206973206e60448201527f6f74206120636f6e747261637400000000000000000000000000000000000000606482015260840161086c565b7f360894a13ba1a3210667c828492db98dca3e2076cc3735a920a3ca505d382bbc80547fffffffffffffffffffffffff00000000000000000000000000000000000000001673ffffffffffffffffffffffffffffffffffffffff92909216919091179055565b6135da836142fc565b6000825111806135e75750805b156109075761120e8383614349565b606082471015613688576040517f08c379a000000000000000000000000000000000000000000000000000000000815260206004820152602660248201527f416464726573733a20696e73756666696369656e742062616c616e636520666f60448201527f722063616c6c0000000000000000000000000000000000000000000000000000606482015260840161086c565b73ffffffffffffffffffffffffffffffffffffffff85163b613706576040517f08c379a000000000000000000000000000000000000000000000000000000000815260206004820152601d60248201527f416464726573733a2063616c6c20746f206e6f6e2d636f6e7472616374000000604482015260640161086c565b6000808673ffffffffffffffffffffffffffffffffffffffff16858760405161372f9190615527565b60006040518083038185875af1925050503d806000811461376c576040519150601f19603f3d011682016040523d82523d6000602084013e613771565b606091505b5091509150613781828286613dba565b979650505050505050565b604080518082019091526000815260606020820152600080838060200190518101906137b89190615588565b9150915060405180604001604052808360018111156137d9576137d9614edd565b8152602001919091529392505050565b60008060006137f88585612f39565b9092509050600081600481111561381157613811614edd565b14801561384957508573ffffffffffffffffffffffffffffffffffffffff168273ffffffffffffffffffffffffffffffffffffffff16145b156138595760019250505061150d565b6000808773ffffffffffffffffffffffffffffffffffffffff16631626ba7e60e01b888860405160240161388e9291906156b8565b604080517fffffffffffffffffffffffffffffffffffffffffffffffffffffffffffffffe08184030181529181526020820180517bffffffffffffffffffffffffffffffffffffffffffffffffffffffff167fffffffff000000000000000000000000000000000000000000000000000000009094169390931790925290516139179190615527565b600060405180830381855afa9150503d8060008114613952576040519150601f19603f3d011682016040523d82523d6000602084013e613957565b606091505b509150915081801561396a575080516020145b80156139cc575080517f1626ba7e00000000000000000000000000000000000000000000000000000000906139a890830160209081019084016156d1565b7fffffffff0000000000000000000000000000000000000000000000000000000016145b98975050505050505050565b600080821215613a44576040517f08c379a000000000000000000000000000000000000000000000000000000000815260206004820181905260248201527f53616665436173743a2076616c7565206d75737420626520706f736974697665604482015260640161086c565b5090565b6000826000018281548110613a5f57613a5f614f0c565b9060005260206000200154905092915050565b600054610100900460ff16613b09576040517f08c379a000000000000000000000000000000000000000000000000000000000815260206004820152602b60248201527f496e697469616c697a61626c653a20636f6e7472616374206973206e6f74206960448201527f6e697469616c697a696e67000000000000000000000000000000000000000000606482015260840161086c565b565b600082815260c96020526040808220600101805490849055905190918391839186917fbd79b86ffe0ab8e8776151514217cd7cacd52c909f66475c3af44e129f0b00ff9190a4505050565b6000613bb8826040518060400160405280602081526020017f5361666545524332303a206c6f772d6c6576656c2063616c6c206661696c65648152508573ffffffffffffffffffffffffffffffffffffffff166144889092919063ffffffff16565b8051909150156109075780806020019051810190613bd691906156ee565b610907576040517f08c379a000000000000000000000000000000000000000000000000000000000815260206004820152602a60248201527f5361666545524332303a204552433230206f7065726174696f6e20646964206e60448201527f6f74207375636365656400000000000000000000000000000000000000000000606482015260840161086c565b6000613c716060830183614fdf565b15159050613c8157506000919050565b613c8a82614497565b806107a857506107a8613ca06060840184614fdf565b8080601f0160208091040260200160405190810160405280939291908181526020018383808284376000920191909152506145e292505050565b613ce58383836137e9565b613d4b576040517f08c379a000000000000000000000000000000000000000000000000000000000815260206004820152601960248201527f41434c3a20496e76616c696420677561726469616e2073696700000000000000604482015260640161086c565b613d54836107ae565b610907576040517f08c379a000000000000000000000000000000000000000000000000000000000815260206004820152601a60248201527f41434c3a205369676e6572206e6f74206120677561726469616e000000000000604482015260640161086c565b60608315613dc957508161150d565b825115613dd95782518084602001fd5b816040517f08c379a000000000000000000000000000000000000000000000000000000000815260040161086c9190614d75565b6000807f7fffffffffffffffffffffffffffffff5d576e7357a4501ddfe92f46681b20a0831115613e445750600090506003613f1c565b8460ff16601b14158015613e5c57508460ff16601c14155b15613e6d5750600090506004613f1c565b6040805160008082526020820180845289905260ff881692820192909252606081018690526080810185905260019060a0016020604051602081039080840390855afa158015613ec1573d6000803e3d6000fd5b50506040517fffffffffffffffffffffffffffffffffffffffffffffffffffffffffffffffe0015191505073ffffffffffffffffffffffffffffffffffffffff8116613f1557600060019250925050613f1c565b9150600090505b94509492505050565b6000807f7fffffffffffffffffffffffffffffffffffffffffffffffffffffffffffffff831681613f5b60ff86901c601b6153a1565b9050613f6987828885613e0d565b935093505050935093915050565b60606000613f86836002615364565b613f919060026153a1565b67ffffffffffffffff811115613fa957613fa9614a00565b6040519080825280601f01601f191660200182016040528015613fd3576020820181803683370190505b5090507f30000000000000000000000000000000000000000000000000000000000000008160008151811061400a5761400a614f0c565b60200101907effffffffffffffffffffffffffffffffffffffffffffffffffffffffffffff1916908160001a9053507f78000000000000000000000000000000000000000000000000000000000000008160018151811061406d5761406d614f0c565b60200101907effffffffffffffffffffffffffffffffffffffffffffffffffffffffffffff1916908160001a90535060006140a9846002615364565b6140b49060016153a1565b90505b6001811115614151577f303132333435363738396162636465660000000000000000000000000000000085600f16601081106140f5576140f5614f0c565b1a60f81b82828151811061410b5761410b614f0c565b60200101907effffffffffffffffffffffffffffffffffffffffffffffffffffffffffffff1916908160001a90535060049490941c9361414a81615710565b90506140b7565b50831561150d576040517f08c379a000000000000000000000000000000000000000000000000000000000815260206004820181905260248201527f537472696e67733a20686578206c656e67746820696e73756666696369656e74604482015260640161086c565b6000818152600183016020526040812054614201575081546001818101845560008481526020808220909301849055845484825282860190935260409020919091556107a8565b5060006107a8565b600081815260018301602052604081205480156142f257600061422d600183615745565b855490915060009061424190600190615745565b90508181146142a657600086600001828154811061426157614261614f0c565b906000526020600020015490508087600001848154811061428457614284614f0c565b6000918252602080832090910192909255918252600188019052604090208390555b85548690806142b7576142b761575c565b6001900381819060005260206000200160009055905585600101600086815260200190815260200160002060009055600193505050506107a8565b60009150506107a8565b614305816134c7565b60405173ffffffffffffffffffffffffffffffffffffffff8216907fbc7cd75a20ee27fd9adebab32041f755214dbc6bffa90cc0225b39da2e5c2d3b90600090a250565b606073ffffffffffffffffffffffffffffffffffffffff83163b6143ef576040517f08c379a000000000000000000000000000000000000000000000000000000000815260206004820152602660248201527f416464726573733a2064656c65676174652063616c6c20746f206e6f6e2d636f60448201527f6e74726163740000000000000000000000000000000000000000000000000000606482015260840161086c565b6000808473ffffffffffffffffffffffffffffffffffffffff16846040516144179190615527565b600060405180830381855af49150503d8060008114614452576040519150601f19603f3d011682016040523d82523d6000602084013e614457565b606091505b509150915061447f828260405180606001604052806027815260200161585360279139613dba565b95945050505050565b606061252b84846000856135f6565b60006144a7610140830183614fdf565b159050806144fc57506144fa6144c06060840184614fdf565b8080601f01602080910402602001604051908101604052809392919081815260200183838082843760009201919091525061463792505050565b155b1561450957506000919050565b600061451483614663565b90506145238160400151614719565b6145305750600092915050565b61453983612257565b6040015173ffffffffffffffffffffffffffffffffffffffff16816000015173ffffffffffffffffffffffffffffffffffffffff161461457c5750600092915050565b6145898160400151614745565b80602001905181019061459c919061578b565b73ffffffffffffffffffffffffffffffffffffffff166145c4610140850161012086016149e3565b73ffffffffffffffffffffffffffffffffffffffff16149392505050565b60007f4fb2e45d0000000000000000000000000000000000000000000000000000000061460e8361479e565b7fffffffff00000000000000000000000000000000000000000000000000000000161492915050565b60007f67674a6f0000000000000000000000000000000000000000000000000000000061460e8361479e565b60408051606080820183526000808352602083015291810191909152600080806146cd6146936060870187614fdf565b8080601f01602080910402602001604051908101604052809392919081815260200183838082843760009201919091525061474592505050565b8060200190518101906146e091906157a8565b6040805160608101825273ffffffffffffffffffffffffffffffffffffffff909416845260208401929092529082015295945050505050565b60007f095ea7b30000000000000000000000000000000000000000000000000000000061460e8361479e565b60606107a882600461479960046040518060400160405280601d81526020017f43616c6c646174613a204e6f20706172616d7320746f206465636f646500000081525087516147b69092919063ffffffff16565b6147fc565b60006147ad82600060046147fc565b6107a890615802565b600081848411156147f4576040517f08c379a000000000000000000000000000000000000000000000000000000000815260040161086c9190614d75565b505050900390565b60608161480a81601f6153a1565b1015614872576040517f08c379a000000000000000000000000000000000000000000000000000000000815260206004820152600e60248201527f736c6963655f6f766572666c6f77000000000000000000000000000000000000604482015260640161086c565b61487c82846153a1565b845110156148e6576040517f08c379a000000000000000000000000000000000000000000000000000000000815260206004820152601160248201527f736c6963655f6f75744f66426f756e6473000000000000000000000000000000604482015260640161086c565b606082158015614905576040519150600082526020820160405261496d565b6040519150601f8416801560200281840101858101878315602002848b0101015b8183101561493e578051835260209283019201614926565b5050858452601f017fffffffffffffffffffffffffffffffffffffffffffffffffffffffffffffffe016604052505b50949350505050565b7fffffffff0000000000000000000000000000000000000000000000000000000081168114610c0f57600080fd5b6000602082840312156149b657600080fd5b813561150d81614976565b73ffffffffffffffffffffffffffffffffffffffff81168114610c0f57600080fd5b6000602082840312156149f557600080fd5b813561150d816149c1565b7f4e487b7100000000000000000000000000000000000000000000000000000000600052604160045260246000fd5b6040805190810167ffffffffffffffff81118282101715614a5257614a52614a00565b60405290565b604051601f82017fffffffffffffffffffffffffffffffffffffffffffffffffffffffffffffffe016810167ffffffffffffffff81118282101715614a9f57614a9f614a00565b604052919050565b600067ffffffffffffffff821115614ac157614ac1614a00565b50601f017fffffffffffffffffffffffffffffffffffffffffffffffffffffffffffffffe01660200190565b600082601f830112614afe57600080fd5b8135614b11614b0c82614aa7565b614a58565b818152846020838601011115614b2657600080fd5b816020850160208301376000918101602001919091529392505050565b60008060408385031215614b5657600080fd5b82359150602083013567ffffffffffffffff811115614b7457600080fd5b614b8085828601614aed565b9150509250929050565b600060208284031215614b9c57600080fd5b5035919050565b60008060408385031215614bb657600080fd5b823591506020830135614bc8816149c1565b809150509250929050565b60008060408385031215614be657600080fd5b8235614bf1816149c1565b9150602083013567ffffffffffffffff811115614b7457600080fd5b60008083601f840112614c1f57600080fd5b50813567ffffffffffffffff811115614c3757600080fd5b602083019150836020828501011115612fa257600080fd5b60008060008060608587031215614c6557600080fd5b8435614c70816149c1565b935060208501359250604085013567ffffffffffffffff811115614c9357600080fd5b614c9f87828801614c0d565b95989497509550505050565b600080600060608486031215614cc057600080fd5b833567ffffffffffffffff811115614cd757600080fd5b84016101808187031215614cea57600080fd5b95602085013595506040909401359392505050565b60005b83811015614d1a578181015183820152602001614d02565b8381111561120e5750506000910152565b60008151808452614d43816020860160208601614cff565b601f017fffffffffffffffffffffffffffffffffffffffffffffffffffffffffffffffe0169290920160200192915050565b60208152600061150d6020830184614d2b565b60008060408385031215614d9b57600080fd5b50508035926020909101359150565b600067ffffffffffffffff821115614dc457614dc4614a00565b5060051b60200190565b60008060408385031215614de157600080fd5b8235614dec816149c1565b915060208381013567ffffffffffffffff811115614e0957600080fd5b8401601f81018613614e1a57600080fd5b8035614e28614b0c82614daa565b81815260059190911b82018301908381019088831115614e4757600080fd5b928401925b82841015614e6e578335614e5f816149c1565b82529284019290840190614e4c565b80955050505050509250929050565b60008060008060608587031215614e9357600080fd5b843560038110614ea257600080fd5b9350602085013567ffffffffffffffff811115614ebe57600080fd5b614eca87828801614c0d565b9598909750949560400135949350505050565b7f4e487b7100000000000000000000000000000000000000000000000000000000600052602160045260246000fd5b7f4e487b7100000000000000000000000000000000000000000000000000000000600052603260045260246000fd5b600060208284031215614f4d57600080fd5b815160ff8116811461150d57600080fd5b600060208284031215614f7057600080fd5b5051919050565b7f4e487b7100000000000000000000000000000000000000000000000000000000600052601160045260246000fd5b60007fffffffffffffffffffffffffffffffffffffffffffffffffffffffffffffffff821415614fd857614fd8614f77565b5060010190565b60008083357fffffffffffffffffffffffffffffffffffffffffffffffffffffffffffffffe184360301811261501457600080fd5b83018035915067ffffffffffffffff82111561502f57600080fd5b602001915036819003821315612fa257600080fd5b8183823760009101908152919050565b848152600060048510615090577f4e487b7100000000000000000000000000000000000000000000000000000000600052602160045260246000fd5b5060f89390931b60208401527fffffffffffffffffffffffffffffffffffffffff000000000000000000000000606092831b81166021850152911b166035820152604901919050565b60048110610c0f57600080fd5b600080600080600060a086880312156150fe57600080fd5b853594506020860135615110816150d9565b93506040860135615120816149c1565b92506060860135615130816149c1565b9150608086013567ffffffffffffffff81111561514c57600080fd5b61515888828901614aed565b9150509295509295909350565b805169ffffffffffffffffffff8116811461271057600080fd5b600080600080600060a0868803121561519757600080fd5b6151a086615165565b94506020860151935060408601519250606086015191506151c360808701615165565b90509295509295909350565b600060ff821660ff8416808210156151e9576151e9614f77565b90039392505050565b600181815b8085111561524b57817fffffffffffffffffffffffffffffffffffffffffffffffffffffffffffffffff0482111561523157615231614f77565b8085161561523e57918102915b93841c93908002906151f7565b509250929050565b600082615262575060016107a8565b8161526f575060006107a8565b8160018114615285576002811461528f576152ab565b60019150506107a8565b60ff8411156152a0576152a0614f77565b50506001821b6107a8565b5060208310610133831016604e8410600b84101617156152ce575081810a6107a8565b6152d883836151f2565b807fffffffffffffffffffffffffffffffffffffffffffffffffffffffffffffffff0482111561530a5761530a614f77565b029392505050565b600061150d60ff841683615253565b7f4e487b7100000000000000000000000000000000000000000000000000000000600052601260045260246000fd5b60008261535f5761535f615321565b500490565b6000817fffffffffffffffffffffffffffffffffffffffffffffffffffffffffffffffff048311821515161561539c5761539c614f77565b500290565b600082198211156153b4576153b4614f77565b500190565b73ffffffffffffffffffffffffffffffffffffffff868116825260a08201906004871061540f577f4e487b7100000000000000000000000000000000000000000000000000000000600052602160045260246000fd5b8660208401528086166040840152508360608301528260808301529695505050505050565b600080600080600060a0868803121561544c57600080fd5b8551615457816149c1565b6020870151909550615468816150d9565b6040870151909450615479816149c1565b6060870151608090970151959894975095949392505050565b6000826154a1576154a1615321565b500690565b7f416363657373436f6e74726f6c3a206163636f756e74200000000000000000008152600083516154de816017850160208801614cff565b7f206973206d697373696e6720726f6c6520000000000000000000000000000000601791840191820152835161551b816028840160208801614cff565b01602801949350505050565b60008251615539818460208701614cff565b9190910192915050565b600082601f83011261555457600080fd5b8151615562614b0c82614aa7565b81815284602083860101111561557757600080fd5b61252b826020830160208701614cff565b600080604080848603121561559c57600080fd5b8351600281106155ab57600080fd5b8093505060208085015167ffffffffffffffff808211156155cb57600080fd5b818701915087601f8301126155df57600080fd5b81516155ed614b0c82614daa565b81815260059190911b8301840190848101908a83111561560c57600080fd5b8585015b838110156156a6578051858111156156285760008081fd5b8601808d037fffffffffffffffffffffffffffffffffffffffffffffffffffffffffffffffe00189131561565c5760008081fd5b615664614a2f565b88820151615671816149c1565b8152818a0151878111156156855760008081fd5b6156938f8b83860101615543565b828b015250845250918601918601615610565b50809750505050505050509250929050565b82815260406020820152600061252b6040830184614d2b565b6000602082840312156156e357600080fd5b815161150d81614976565b60006020828403121561570057600080fd5b8151801515811461150d57600080fd5b60008161571f5761571f614f77565b507fffffffffffffffffffffffffffffffffffffffffffffffffffffffffffffffff0190565b60008282101561575757615757614f77565b500390565b7f4e487b7100000000000000000000000000000000000000000000000000000000600052603160045260246000fd5b60006020828403121561579d57600080fd5b815161150d816149c1565b6000806000606084860312156157bd57600080fd5b83516157c8816149c1565b60208501516040860151919450925067ffffffffffffffff8111156157ec57600080fd5b6157f886828701615543565b9150509250925092565b6000815160208301517fffffffff000000000000000000000000000000000000000000000000000000008082169350600483101561584a5780818460040360031b1b83161693505b50505091905056fe416464726573733a206c6f772d6c6576656c2064656c65676174652063616c6c206661696c6564a2646970667358221220ef6b7ab0e867cd4bfefa904e51ad05fd215aed03985021261a1ec3a1848f5ffc64736f6c63430008090033496e697469616c697a61626c653a20636f6e747261637420697320616c726561",
  "linkReferences": {},
  "deployedLinkReferences": {}
}